{
  "contractName": "MyContract",
  "abi": [
    {
      "constant": true,
      "inputs": [],
      "name": "owner",
      "outputs": [
        {
          "name": "",
          "type": "address"
        }
      ],
      "payable": false,
      "stateMutability": "view",
      "type": "function"
    },
    {
      "inputs": [],
      "payable": true,
      "stateMutability": "payable",
      "type": "constructor"
    },
    {
      "constant": true,
      "inputs": [],
      "name": "get_balance",
      "outputs": [
        {
          "name": "",
          "type": "uint256"
        }
      ],
      "payable": false,
      "stateMutability": "view",
      "type": "function"
    },
    {
      "constant": false,
      "inputs": [],
      "name": "deposit",
      "outputs": [],
      "payable": true,
      "stateMutability": "payable",
      "type": "function"
    },
    {
      "constant": false,
      "inputs": [
        {
          "name": "peb",
          "type": "uint256"
        }
      ],
      "name": "withdraw",
      "outputs": [],
      "payable": true,
      "stateMutability": "payable",
      "type": "function"
    }
  ],
  "bytecode": "0x6080604052336000806101000a81548173ffffffffffffffffffffffffffffffffffffffff021916908373ffffffffffffffffffffffffffffffffffffffff160217905550610290806100536000396000f3fe60806040526004361061003f5760003560e01c80632e1a7d4d146100445780638da5cb5b14610072578063c1cfb99a146100c9578063d0e30db0146100f4575b600080fd5b6100706004803603602081101561005a57600080fd5b81019080803590602001909291905050506100fe565b005b34801561007e57600080fd5b5061008761021e565b604051808273ffffffffffffffffffffffffffffffffffffffff1673ffffffffffffffffffffffffffffffffffffffff16815260200191505060405180910390f35b3480156100d557600080fd5b506100de610243565b6040518082815260200191505060405180910390f35b6100fc610262565b005b80610107610243565b101561017b576040517f08c379a00000000000000000000000000000000000000000000000000000000081526004018080602001828103825260128152602001807f6e6f7420656e6f7567682062616c616e6365000000000000000000000000000081525060200191505060405180910390fd5b6000809054906101000a900473ffffffffffffffffffffffffffffffffffffffff1673ffffffffffffffffffffffffffffffffffffffff163373ffffffffffffffffffffffffffffffffffffffff16146101d457600080fd5b3373ffffffffffffffffffffffffffffffffffffffff166108fc829081150290604051600060405180830381858888f1935050505015801561021a573d6000803e3d6000fd5b5050565b6000809054906101000a900473ffffffffffffffffffffffffffffffffffffffff1681565b60003073ffffffffffffffffffffffffffffffffffffffff1631905090565b56fea165627a7a723058209bb5455a043d676deead23acd8a67c23f7808f2362bee529187e1809500134160029",
  "source": "pragma solidity ^0.5.6;\r\n\r\ncontract MyContract {\r\n  address payable public owner;\r\n\r\n  constructor() public payable {\r\n    owner = msg.sender;\r\n  }\r\n\r\n  // function get_balance() external view returns (uint256) {\r\n  function get_balance() public view returns (uint256) {\r\n    return address(this).balance;\r\n  }\r\n\r\n  function deposit() external payable {}\r\n\r\n  function withdraw(uint256 peb) external payable {\r\n    require(get_balance() >= peb, \"not enough balance\");\r\n    require(msg.sender == owner);\r\n    msg.sender.transfer(peb);\r\n    msg.value;\r\n  }\r\n}\r\n",
  "sourcePath": "C:\\project\\git\\klay-tutorial-v2\\klaytn-04\\contracts\\MyContract.sol",
  "compiler": {
    "name": "solc",
    "version": "0.5.6+commit.b259423e.Emscripten.clang"
  },
  "schemaVersion": "3.1.0",
  "updatedAt": "2022-02-21T02:55:47.836Z",
  "devdoc": {
    "methods": {}
  },
  "userdoc": {
    "methods": {}
  }
}