{
  "contractName": "MyGame",
  "abi": [
    {
      "constant": true,
      "inputs": [],
      "name": "owner",
      "outputs": [
        {
          "name": "",
          "type": "address"
        }
      ],
      "payable": false,
      "stateMutability": "view",
      "type": "function"
    },
    {
      "inputs": [],
      "payable": true,
      "stateMutability": "payable",
      "type": "constructor"
    },
    {
      "anonymous": false,
      "inputs": [
        {
          "indexed": true,
          "name": "game_id",
          "type": "uint256"
        },
        {
          "indexed": false,
          "name": "adr",
          "type": "address"
        },
        {
          "indexed": false,
          "name": "input",
          "type": "uint256"
        },
        {
          "indexed": false,
          "name": "server_input",
          "type": "uint256"
        },
        {
          "indexed": false,
          "name": "result",
          "type": "uint256"
        }
      ],
      "name": "play_log",
      "type": "event"
    },
    {
      "constant": true,
      "inputs": [],
      "name": "get_balance",
      "outputs": [
        {
          "name": "",
          "type": "uint256"
        }
      ],
      "payable": false,
      "stateMutability": "view",
      "type": "function"
    },
    {
      "constant": false,
      "inputs": [],
      "name": "deposit",
      "outputs": [],
      "payable": true,
      "stateMutability": "payable",
      "type": "function"
    },
    {
      "constant": false,
      "inputs": [
        {
          "name": "peb",
          "type": "uint256"
        }
      ],
      "name": "withdraw",
      "outputs": [],
      "payable": true,
      "stateMutability": "payable",
      "type": "function"
    },
    {
      "constant": false,
      "inputs": [
        {
          "name": "peb",
          "type": "uint256"
        }
      ],
      "name": "set_bet_size",
      "outputs": [],
      "payable": false,
      "stateMutability": "nonpayable",
      "type": "function"
    },
    {
      "constant": false,
      "inputs": [],
      "name": "get_bet_size",
      "outputs": [
        {
          "name": "",
          "type": "uint256"
        }
      ],
      "payable": false,
      "stateMutability": "nonpayable",
      "type": "function"
    },
    {
      "constant": false,
      "inputs": [
        {
          "name": "input",
          "type": "uint256"
        }
      ],
      "name": "play_game",
      "outputs": [],
      "payable": true,
      "stateMutability": "payable",
      "type": "function"
    }
  ],
  "bytecode": "0x608060405260006001556000600255336000806101000a81548173ffffffffffffffffffffffffffffffffffffffff021916908373ffffffffffffffffffffffffffffffffffffffff16021790555061063a8061005d6000396000f3fe6080604052600436106100705760003560e01c80638da5cb5b1161004e5780638da5cb5b146100fc578063c1cfb99a14610153578063d0e30db01461017e578063e4e23d341461018857610070565b806315d87a59146100755780632e1a7d4d146100a057806372a173aa146100ce575b600080fd5b34801561008157600080fd5b5061008a6101c3565b6040518082815260200191505060405180910390f35b6100cc600480360360208110156100b657600080fd5b81019080803590602001909291905050506101cd565b005b6100fa600480360360208110156100e457600080fd5b81019080803590602001909291905050506102ed565b005b34801561010857600080fd5b506101116105be565b604051808273ffffffffffffffffffffffffffffffffffffffff1673ffffffffffffffffffffffffffffffffffffffff16815260200191505060405180910390f35b34801561015f57600080fd5b506101686105e3565b6040518082815260200191505060405180910390f35b610186610602565b005b34801561019457600080fd5b506101c1600480360360208110156101ab57600080fd5b8101908080359060200190929190505050610604565b005b6000600254905090565b806101d66105e3565b101561024a576040517f08c379a00000000000000000000000000000000000000000000000000000000081526004018080602001828103825260128152602001807f6e6f7420656e6f7567682062616c616e6365000000000000000000000000000081525060200191505060405180910390fd5b6000809054906101000a900473ffffffffffffffffffffffffffffffffffffffff1673ffffffffffffffffffffffffffffffffffffffff163373ffffffffffffffffffffffffffffffffffffffff16146102a357600080fd5b3373ffffffffffffffffffffffffffffffffffffffff166108fc829081150290604051600060405180830381858888f193505050501580156102e9573d6000803e3d6000fd5b5050565b60025434146102fb57600080fd5b3460026103066105e3565b021161031157600080fd5b60006003438161031d57fe5b06905060016000815480929190600101919050555080821415610406573373ffffffffffffffffffffffffffffffffffffffff166108fc349081150290604051600060405180830381858888f19350505050158015610380573d6000803e3d6000fd5b506001547fb0996af45074629f2af5d9115842b7c45ba9f1c990924043c9094380e3a2bd833384846001604051808573ffffffffffffffffffffffffffffffffffffffff1673ffffffffffffffffffffffffffffffffffffffff16815260200184815260200183815260200182815260200194505050505060405180910390a2506105bb565b60006001905060008314801561041c5750600182145b1561042a5760009050610464565b60018314801561043a5750600282145b156104485760009050610463565b6002831480156104585750600082145b1561046257600090505b5b5b8015610538573373ffffffffffffffffffffffffffffffffffffffff166108fc600234029081150290604051600060405180830381858888f193505050501580156104b3573d6000803e3d6000fd5b506001547fb0996af45074629f2af5d9115842b7c45ba9f1c990924043c9094380e3a2bd833385856002604051808573ffffffffffffffffffffffffffffffffffffffff1673ffffffffffffffffffffffffffffffffffffffff16815260200184815260200183815260200182815260200194505050505060405180910390a26105b8565b6001547fb0996af45074629f2af5d9115842b7c45ba9f1c990924043c9094380e3a2bd833385856000604051808573ffffffffffffffffffffffffffffffffffffffff1673ffffffffffffffffffffffffffffffffffffffff16815260200184815260200183815260200182815260200194505050505060405180910390a25b50505b50565b6000809054906101000a900473ffffffffffffffffffffffffffffffffffffffff1681565b60003073ffffffffffffffffffffffffffffffffffffffff1631905090565b565b806002819055505056fea165627a7a72305820a17bb1c18f75e45c0321d048185f0eed9f49ff665e2cc71313f30449adcd4a020029",
  "source": "pragma solidity ^0.5.6;\r\n\r\ncontract MyGame {\r\n  address payable public owner;\r\n\r\n  constructor() public payable {\r\n    owner = msg.sender;\r\n  }\r\n\r\n  function get_balance() public view returns (uint256) {\r\n    return address(this).balance;\r\n  }\r\n\r\n  function deposit() external payable {}\r\n\r\n  function withdraw(uint256 peb) external payable {\r\n    require(get_balance() >= peb, \"not enough balance\");\r\n    require(msg.sender == owner);\r\n    msg.sender.transfer(peb);\r\n  }\r\n\r\n  uint256 game_id = 0;\r\n  uint256 bet_size = 0;\r\n\r\n  function set_bet_size(uint256 peb) external {\r\n    bet_size = peb;\r\n  }\r\n\r\n  function get_bet_size() external returns (uint256) {\r\n    return bet_size;\r\n  }\r\n\r\n  // result : 0:패배 1:비김 2:이김\r\n  event play_log(\r\n    uint256 indexed game_id,\r\n    address adr,\r\n    uint256 input,\r\n    uint256 server_input,\r\n    uint256 result\r\n  );\r\n\r\n  // input : 0:가위 1:바위 2:보\r\n  function play_game(uint256 input) external payable {\r\n    require(msg.value == bet_size);\r\n    require(get_balance() * 2 > msg.value);\r\n\r\n    uint256 server_input = block.number % 3;\r\n\r\n    game_id++;\r\n\r\n    if (input == server_input) {\r\n      msg.sender.transfer(msg.value); // 다시환불\r\n      emit play_log(game_id, msg.sender, input, server_input, 1);\r\n      return;\r\n    }\r\n\r\n    bool win = true;\r\n    if (input == 0 && server_input == 1) {\r\n      win = false;\r\n    } else if (input == 1 && server_input == 2) {\r\n      win = false;\r\n    } else if (input == 2 && server_input == 0) {\r\n      win = false;\r\n    }\r\n\r\n    if (win) {\r\n      msg.sender.transfer(msg.value * 2); // 입금의 두배를 넣어야함\r\n      emit play_log(game_id, msg.sender, input, server_input, 2);\r\n    } else {\r\n      emit play_log(game_id, msg.sender, input, server_input, 0);\r\n    }\r\n  }\r\n}\r\n",
  "sourcePath": "C:\\project\\git\\klay-tutorial-v2\\klaytn-05\\contracts\\MyGame.sol",
  "compiler": {
    "name": "solc",
    "version": "0.5.6+commit.b259423e.Emscripten.clang"
  },
  "schemaVersion": "3.1.0",
  "updatedAt": "2022-02-27T12:17:32.524Z",
  "networkType": "ethereum",
  "devdoc": {
    "methods": {}
  },
  "userdoc": {
    "methods": {}
  }
}