{
  "contractName": "MyContract",
  "abi": [
    {
      "constant": false,
      "inputs": [
        {
          "name": "v",
          "type": "uint256"
        }
      ],
      "name": "set_myval",
      "outputs": [],
      "payable": false,
      "stateMutability": "nonpayable",
      "type": "function"
    },
    {
      "constant": true,
      "inputs": [],
      "name": "get_myval",
      "outputs": [
        {
          "name": "",
          "type": "uint256"
        }
      ],
      "payable": false,
      "stateMutability": "view",
      "type": "function"
    }
  ],
  "bytecode": "0x60806040526000805534801561001457600080fd5b5060bd806100236000396000f3fe6080604052348015600f57600080fd5b506004361060325760003560e01c8063267844711460375780639a8d0bc8146062575b600080fd5b606060048036036020811015604b57600080fd5b8101908080359060200190929190505050607e565b005b60686088565b6040518082815260200191505060405180910390f35b8060008190555050565b6000805490509056fea165627a7a723058207bb5cc81556c6d48dfdbe1beb6502f275aff2ae1ec487e6969a69f0cc34aeb4c0029",
  "source": "pragma solidity ^0.5.6;\r\n\r\ncontract MyContract {\r\n    uint myval = 0;\r\n\r\n    function set_myval(uint v) public {\r\n        myval = v;\r\n    }\r\n\r\n    function get_myval() public view returns (uint) {\r\n        return myval;\r\n    }\r\n}\r\n\r\n",
  "sourcePath": "C:\\project\\git\\klay-tutorial-v2\\klaytn-02\\contracts\\MyContract.sol",
  "compiler": {
    "name": "solc",
    "version": "0.5.6+commit.b259423e.Emscripten.clang"
  },
  "schemaVersion": "3.1.0",
  "updatedAt": "2022-02-11T04:11:08.395Z",
  "networkType": "ethereum",
  "devdoc": {
    "methods": {}
  },
  "userdoc": {
    "methods": {}
  }
}