{
  "contractName": "MyContract",
  "abi": [
    {
      "constant": false,
      "inputs": [
        {
          "name": "v",
          "type": "uint256"
        }
      ],
      "name": "set_myval",
      "outputs": [],
      "payable": false,
      "stateMutability": "nonpayable",
      "type": "function"
    },
    {
      "constant": true,
      "inputs": [],
      "name": "get_myval",
      "outputs": [
        {
          "name": "",
          "type": "uint256"
        }
      ],
      "payable": false,
      "stateMutability": "view",
      "type": "function"
    }
  ],
  "bytecode": "0x608060405260008055600060015534801561001957600080fd5b5060eb806100286000396000f3fe6080604052348015600f57600080fd5b506004361060325760003560e01c8063267844711460375780639a8d0bc8146062575b600080fd5b606060048036036020811015604b57600080fd5b8101908080359060200190929190505050607e565b005b606860b6565b6040518082815260200191505060405180910390f35b600560015410608c57600080fd5b806000541415609a57600080fd5b8060008190555060016000815480929190600101919050555050565b6000805490509056fea165627a7a7230582007f3c18fc9602fd0b996bf5030a3bf2398bb98f7a4b61e8668bfa6999da3c7030029",
  "source": "pragma solidity ^0.5.6;\r\n\r\ncontract MyContract {\r\n  uint256 myval = 0;\r\n  uint256 call_count = 0;\r\n\r\n  function set_myval(uint256 v) public {\r\n    require(call_count < 5);\r\n    require(myval != v);\r\n    myval = v;\r\n    call_count++;\r\n  }\r\n\r\n  function get_myval() public view returns (uint256) {\r\n    return myval;\r\n  }\r\n}\r\n",
  "sourcePath": "C:\\project\\git\\klay-tutorial-v2\\klaytn-03\\contracts\\MyContract.sol",
  "compiler": {
    "name": "solc",
    "version": "0.5.6+commit.b259423e.Emscripten.clang"
  },
  "schemaVersion": "3.1.0",
  "updatedAt": "2022-02-12T06:34:30.727Z",
  "networkType": "ethereum",
  "devdoc": {
    "methods": {}
  },
  "userdoc": {
    "methods": {}
  }
}