{
  "contractName": "MyNFT",
  "abi": [
    {
      "constant": true,
      "inputs": [
        {
          "name": "interfaceId",
          "type": "bytes4"
        }
      ],
      "name": "supportsInterface",
      "outputs": [
        {
          "name": "",
          "type": "bool"
        }
      ],
      "payable": false,
      "stateMutability": "view",
      "type": "function"
    },
    {
      "constant": true,
      "inputs": [],
      "name": "name",
      "outputs": [
        {
          "name": "",
          "type": "string"
        }
      ],
      "payable": false,
      "stateMutability": "view",
      "type": "function"
    },
    {
      "constant": true,
      "inputs": [
        {
          "name": "tokenId",
          "type": "uint256"
        }
      ],
      "name": "getApproved",
      "outputs": [
        {
          "name": "",
          "type": "address"
        }
      ],
      "payable": false,
      "stateMutability": "view",
      "type": "function"
    },
    {
      "constant": false,
      "inputs": [
        {
          "name": "to",
          "type": "address"
        },
        {
          "name": "tokenId",
          "type": "uint256"
        }
      ],
      "name": "approve",
      "outputs": [],
      "payable": false,
      "stateMutability": "nonpayable",
      "type": "function"
    },
    {
      "constant": true,
      "inputs": [],
      "name": "totalSupply",
      "outputs": [
        {
          "name": "",
          "type": "uint256"
        }
      ],
      "payable": false,
      "stateMutability": "view",
      "type": "function"
    },
    {
      "constant": false,
      "inputs": [
        {
          "name": "from",
          "type": "address"
        },
        {
          "name": "to",
          "type": "address"
        },
        {
          "name": "tokenId",
          "type": "uint256"
        }
      ],
      "name": "transferFrom",
      "outputs": [],
      "payable": false,
      "stateMutability": "nonpayable",
      "type": "function"
    },
    {
      "constant": true,
      "inputs": [
        {
          "name": "owner",
          "type": "address"
        },
        {
          "name": "index",
          "type": "uint256"
        }
      ],
      "name": "tokenOfOwnerByIndex",
      "outputs": [
        {
          "name": "",
          "type": "uint256"
        }
      ],
      "payable": false,
      "stateMutability": "view",
      "type": "function"
    },
    {
      "constant": false,
      "inputs": [],
      "name": "unpause",
      "outputs": [],
      "payable": false,
      "stateMutability": "nonpayable",
      "type": "function"
    },
    {
      "constant": false,
      "inputs": [
        {
          "name": "to",
          "type": "address"
        },
        {
          "name": "tokenId",
          "type": "uint256"
        }
      ],
      "name": "mint",
      "outputs": [
        {
          "name": "",
          "type": "bool"
        }
      ],
      "payable": false,
      "stateMutability": "nonpayable",
      "type": "function"
    },
    {
      "constant": false,
      "inputs": [
        {
          "name": "from",
          "type": "address"
        },
        {
          "name": "to",
          "type": "address"
        },
        {
          "name": "tokenId",
          "type": "uint256"
        }
      ],
      "name": "safeTransferFrom",
      "outputs": [],
      "payable": false,
      "stateMutability": "nonpayable",
      "type": "function"
    },
    {
      "constant": false,
      "inputs": [
        {
          "name": "tokenId",
          "type": "uint256"
        }
      ],
      "name": "burn",
      "outputs": [],
      "payable": false,
      "stateMutability": "nonpayable",
      "type": "function"
    },
    {
      "constant": true,
      "inputs": [
        {
          "name": "account",
          "type": "address"
        }
      ],
      "name": "isPauser",
      "outputs": [
        {
          "name": "",
          "type": "bool"
        }
      ],
      "payable": false,
      "stateMutability": "view",
      "type": "function"
    },
    {
      "constant": true,
      "inputs": [
        {
          "name": "index",
          "type": "uint256"
        }
      ],
      "name": "tokenByIndex",
      "outputs": [
        {
          "name": "",
          "type": "uint256"
        }
      ],
      "payable": false,
      "stateMutability": "view",
      "type": "function"
    },
    {
      "constant": false,
      "inputs": [
        {
          "name": "to",
          "type": "address"
        },
        {
          "name": "tokenId",
          "type": "uint256"
        },
        {
          "name": "tokenURI",
          "type": "string"
        }
      ],
      "name": "mintWithTokenURI",
      "outputs": [
        {
          "name": "",
          "type": "bool"
        }
      ],
      "payable": false,
      "stateMutability": "nonpayable",
      "type": "function"
    },
    {
      "constant": true,
      "inputs": [],
      "name": "paused",
      "outputs": [
        {
          "name": "",
          "type": "bool"
        }
      ],
      "payable": false,
      "stateMutability": "view",
      "type": "function"
    },
    {
      "constant": true,
      "inputs": [
        {
          "name": "tokenId",
          "type": "uint256"
        }
      ],
      "name": "ownerOf",
      "outputs": [
        {
          "name": "",
          "type": "address"
        }
      ],
      "payable": false,
      "stateMutability": "view",
      "type": "function"
    },
    {
      "constant": false,
      "inputs": [],
      "name": "renouncePauser",
      "outputs": [],
      "payable": false,
      "stateMutability": "nonpayable",
      "type": "function"
    },
    {
      "constant": true,
      "inputs": [
        {
          "name": "owner",
          "type": "address"
        }
      ],
      "name": "balanceOf",
      "outputs": [
        {
          "name": "",
          "type": "uint256"
        }
      ],
      "payable": false,
      "stateMutability": "view",
      "type": "function"
    },
    {
      "constant": false,
      "inputs": [],
      "name": "renounceOwnership",
      "outputs": [],
      "payable": false,
      "stateMutability": "nonpayable",
      "type": "function"
    },
    {
      "constant": false,
      "inputs": [
        {
          "name": "account",
          "type": "address"
        }
      ],
      "name": "addPauser",
      "outputs": [],
      "payable": false,
      "stateMutability": "nonpayable",
      "type": "function"
    },
    {
      "constant": false,
      "inputs": [],
      "name": "pause",
      "outputs": [],
      "payable": false,
      "stateMutability": "nonpayable",
      "type": "function"
    },
    {
      "constant": true,
      "inputs": [],
      "name": "owner",
      "outputs": [
        {
          "name": "",
          "type": "address"
        }
      ],
      "payable": false,
      "stateMutability": "view",
      "type": "function"
    },
    {
      "constant": true,
      "inputs": [],
      "name": "isOwner",
      "outputs": [
        {
          "name": "",
          "type": "bool"
        }
      ],
      "payable": false,
      "stateMutability": "view",
      "type": "function"
    },
    {
      "constant": true,
      "inputs": [],
      "name": "symbol",
      "outputs": [
        {
          "name": "",
          "type": "string"
        }
      ],
      "payable": false,
      "stateMutability": "view",
      "type": "function"
    },
    {
      "constant": false,
      "inputs": [
        {
          "name": "to",
          "type": "address"
        },
        {
          "name": "approved",
          "type": "bool"
        }
      ],
      "name": "setApprovalForAll",
      "outputs": [],
      "payable": false,
      "stateMutability": "nonpayable",
      "type": "function"
    },
    {
      "constant": false,
      "inputs": [
        {
          "name": "from",
          "type": "address"
        },
        {
          "name": "to",
          "type": "address"
        },
        {
          "name": "tokenId",
          "type": "uint256"
        },
        {
          "name": "_data",
          "type": "bytes"
        }
      ],
      "name": "safeTransferFrom",
      "outputs": [],
      "payable": false,
      "stateMutability": "nonpayable",
      "type": "function"
    },
    {
      "constant": true,
      "inputs": [
        {
          "name": "tokenId",
          "type": "uint256"
        }
      ],
      "name": "tokenURI",
      "outputs": [
        {
          "name": "",
          "type": "string"
        }
      ],
      "payable": false,
      "stateMutability": "view",
      "type": "function"
    },
    {
      "constant": true,
      "inputs": [
        {
          "name": "owner",
          "type": "address"
        },
        {
          "name": "operator",
          "type": "address"
        }
      ],
      "name": "isApprovedForAll",
      "outputs": [
        {
          "name": "",
          "type": "bool"
        }
      ],
      "payable": false,
      "stateMutability": "view",
      "type": "function"
    },
    {
      "constant": false,
      "inputs": [
        {
          "name": "newOwner",
          "type": "address"
        }
      ],
      "name": "transferOwnership",
      "outputs": [],
      "payable": false,
      "stateMutability": "nonpayable",
      "type": "function"
    },
    {
      "inputs": [],
      "payable": false,
      "stateMutability": "nonpayable",
      "type": "constructor"
    },
    {
      "anonymous": false,
      "inputs": [
        {
          "indexed": false,
          "name": "account",
          "type": "address"
        }
      ],
      "name": "Paused",
      "type": "event"
    },
    {
      "anonymous": false,
      "inputs": [
        {
          "indexed": false,
          "name": "account",
          "type": "address"
        }
      ],
      "name": "Unpaused",
      "type": "event"
    },
    {
      "anonymous": false,
      "inputs": [
        {
          "indexed": true,
          "name": "account",
          "type": "address"
        }
      ],
      "name": "PauserAdded",
      "type": "event"
    },
    {
      "anonymous": false,
      "inputs": [
        {
          "indexed": true,
          "name": "account",
          "type": "address"
        }
      ],
      "name": "PauserRemoved",
      "type": "event"
    },
    {
      "anonymous": false,
      "inputs": [
        {
          "indexed": true,
          "name": "previousOwner",
          "type": "address"
        },
        {
          "indexed": true,
          "name": "newOwner",
          "type": "address"
        }
      ],
      "name": "OwnershipTransferred",
      "type": "event"
    },
    {
      "anonymous": false,
      "inputs": [
        {
          "indexed": true,
          "name": "from",
          "type": "address"
        },
        {
          "indexed": true,
          "name": "to",
          "type": "address"
        },
        {
          "indexed": true,
          "name": "tokenId",
          "type": "uint256"
        }
      ],
      "name": "Transfer",
      "type": "event"
    },
    {
      "anonymous": false,
      "inputs": [
        {
          "indexed": true,
          "name": "owner",
          "type": "address"
        },
        {
          "indexed": true,
          "name": "approved",
          "type": "address"
        },
        {
          "indexed": true,
          "name": "tokenId",
          "type": "uint256"
        }
      ],
      "name": "Approval",
      "type": "event"
    },
    {
      "anonymous": false,
      "inputs": [
        {
          "indexed": true,
          "name": "owner",
          "type": "address"
        },
        {
          "indexed": true,
          "name": "operator",
          "type": "address"
        },
        {
          "indexed": false,
          "name": "approved",
          "type": "bool"
        }
      ],
      "name": "ApprovalForAll",
      "type": "event"
    },
    {
      "constant": true,
      "inputs": [],
      "name": "getData",
      "outputs": [
        {
          "components": [
            {
              "name": "fee",
              "type": "uint256"
            },
            {
              "name": "count",
              "type": "uint256"
            }
          ],
          "name": "",
          "type": "tuple"
        }
      ],
      "payable": false,
      "stateMutability": "view",
      "type": "function"
    },
    {
      "constant": false,
      "inputs": [
        {
          "name": "_fee",
          "type": "uint256"
        }
      ],
      "name": "setFee",
      "outputs": [],
      "payable": false,
      "stateMutability": "nonpayable",
      "type": "function"
    },
    {
      "constant": false,
      "inputs": [
        {
          "name": "_count",
          "type": "uint256"
        }
      ],
      "name": "setCount",
      "outputs": [],
      "payable": false,
      "stateMutability": "nonpayable",
      "type": "function"
    },
    {
      "constant": false,
      "inputs": [
        {
          "name": "peb",
          "type": "uint256"
        }
      ],
      "name": "withdraw",
      "outputs": [],
      "payable": true,
      "stateMutability": "payable",
      "type": "function"
    },
    {
      "constant": false,
      "inputs": [],
      "name": "mintGeust",
      "outputs": [],
      "payable": true,
      "stateMutability": "payable",
      "type": "function"
    }
  ],
  "bytecode": "0x6080604052604051806060016040528060298152602001620052116029913960119080519060200190620000359291906200058a565b503480156200004357600080fd5b506040518060400160405280600581526020017f4d794e46540000000000000000000000000000000000000000000000000000008152506040518060400160405280600581526020017f4d594e465400000000000000000000000000000000000000000000000000000081525081818181620000cc6301ffc9a760e01b620002d360201b60201c565b620000e46380ac58cd60e01b620002d360201b60201c565b620000fc63780e9d6360e01b620002d360201b60201c565b8160099080519060200190620001149291906200058a565b5080600a90805190602001906200012d9291906200058a565b5062000146635b5e139f60e01b620002d360201b60201c565b5050505033600c60006101000a81548173ffffffffffffffffffffffffffffffffffffffff021916908373ffffffffffffffffffffffffffffffffffffffff160217905550600c60009054906101000a900473ffffffffffffffffffffffffffffffffffffffff1673ffffffffffffffffffffffffffffffffffffffff16600073ffffffffffffffffffffffffffffffffffffffff167f8be0079c531659141344cd1fd0a4f28419497f9722a3daafe3b4186f6b6457e060405160405180910390a36200022063eab83e2060e01b620002d360201b60201c565b6200023863fac27f4660e01b620002d360201b60201c565b620002506342966c6860e01b620002d360201b60201c565b6200026133620003ab60201b60201c565b6000600e60006101000a81548160ff02191690831515021790555062000294634d5507ff60e01b620002d360201b60201c565b50506040518060400160405280670de0b6b3a764000081526020016000815250600f60008201518160000155602082015181600101559050506200079c565b63ffffffff60e01b817bffffffffffffffffffffffffffffffffffffffffffffffffffffffff191614156200033f576040517f08c379a0000000000000000000000000000000000000000000000000000000008152600401620003369062000747565b60405180910390fd5b6001600080837bffffffffffffffffffffffffffffffffffffffffffffffffffffffff19167bffffffffffffffffffffffffffffffffffffffffffffffffffffffff1916815260200190815260200160002060006101000a81548160ff02191690831515021790555050565b620003c681600d6200040c60201b62002b1f1790919060201c565b8073ffffffffffffffffffffffffffffffffffffffff167f6719d08c1888103bea251a4ed56406bd0c3e69723c8a1686e017e7bbe159b6f860405160405180910390a250565b6200041e8282620004bf60201b60201c565b1562000461576040517f08c379a0000000000000000000000000000000000000000000000000000000008152600401620004589062000725565b60405180910390fd5b60018260000160008373ffffffffffffffffffffffffffffffffffffffff1673ffffffffffffffffffffffffffffffffffffffff16815260200190815260200160002060006101000a81548160ff0219169083151502179055505050565b60008073ffffffffffffffffffffffffffffffffffffffff168273ffffffffffffffffffffffffffffffffffffffff16141562000533576040517f08c379a00000000000000000000000000000000000000000000000000000000081526004016200052a9062000769565b60405180910390fd5b8260000160008373ffffffffffffffffffffffffffffffffffffffff1673ffffffffffffffffffffffffffffffffffffffff16815260200190815260200160002060009054906101000a900460ff16905092915050565b828054600181600116156101000203166002900490600052602060002090601f016020900481019282601f10620005cd57805160ff1916838001178555620005fe565b82800160010185558215620005fe579182015b82811115620005fd578251825591602001919060010190620005e0565b5b5090506200060d919062000611565b5090565b6200063691905b808211156200063257600081600090555060010162000618565b5090565b90565b600062000648601f836200078b565b91507f526f6c65733a206163636f756e7420616c72656164792068617320726f6c65006000830152602082019050919050565b60006200068a601b836200078b565b91507f4b495031333a20696e76616c696420696e7465726661636520696400000000006000830152602082019050919050565b6000620006cc6022836200078b565b91507f526f6c65733a206163636f756e7420697320746865207a65726f20616464726560008301527f73730000000000000000000000000000000000000000000000000000000000006020830152604082019050919050565b60006020820190508181036000830152620007408162000639565b9050919050565b6000602082019050818103600083015262000762816200067b565b9050919050565b600060208201905081810360008301526200078481620006bd565b9050919050565b600082825260208201905092915050565b614a6580620007ac6000396000f3fe6080604052600436106101f95760003560e01c80635c975abb1161010d5780638da5cb5b116100a0578063b88d4fde1161006f578063b88d4fde146106f1578063c87b56dd1461071a578063d14e62b814610757578063e985e9c514610780578063f2fde38b146107bd576101f9565b80638da5cb5b146106475780638f32d59b1461067257806395d89b411461069d578063a22cb465146106c8576101f9565b806370a08231116100dc57806370a08231146105b3578063715018a6146105f057806382dc1ec4146106075780638456cb5914610630576101f9565b80635c975abb1461050b5780636352211e1461053657806369fe0e2d146105735780636ef8d66d1461059c576101f9565b80633bc5de301161019057806342842e0e1161015f57806342842e0e1461040257806342966c681461042b57806346fbf68e146104545780634f6ccce71461049157806350bb4e7f146104ce576101f9565b80633bc5de30146103795780633f4ba83a146103a45780633fa0c48d146103bb57806340c10f19146103c5576101f9565b806318160ddd116101cc57806318160ddd146102cc57806323b872dd146102f75780632e1a7d4d146103205780632f745c591461033c576101f9565b806301ffc9a7146101fe57806306fdde031461023b578063081812fc14610266578063095ea7b3146102a3575b600080fd5b34801561020a57600080fd5b506102256004803603610220919081019061383a565b6107e6565b6040516102329190614427565b60405180910390f35b34801561024757600080fd5b5061025061084d565b60405161025d9190614442565b60405180910390f35b34801561027257600080fd5b5061028d6004803603610288919081019061388c565b6108ef565b60405161029a919061438a565b60405180910390f35b3480156102af57600080fd5b506102ca60048036036102c59190810190613797565b610974565b005b3480156102d857600080fd5b506102e16109d2565b6040516102ee91906147df565b60405180910390f35b34801561030357600080fd5b5061031e60048036036103199190810190613691565b6109df565b005b61033a6004803603610335919081019061388c565b610a3f565b005b34801561034857600080fd5b50610363600480360361035e9190810190613797565b610af2565b60405161037091906147df565b60405180910390f35b34801561038557600080fd5b5061038e610b9b565b60405161039b91906147c4565b60405180910390f35b3480156103b057600080fd5b506103b9610bc9565b005b6103c3610cb4565b005b3480156103d157600080fd5b506103ec60048036036103e79190810190613797565b610e0a565b6040516103f99190614427565b60405180910390f35b34801561040e57600080fd5b5061042960048036036104249190810190613691565b610e67565b005b34801561043757600080fd5b50610452600480360361044d919081019061388c565b610e87565b005b34801561046057600080fd5b5061047b60048036036104769190810190613603565b610edc565b6040516104889190614427565b60405180910390f35b34801561049d57600080fd5b506104b860048036036104b3919081019061388c565b610ef9565b6040516104c591906147df565b60405180910390f35b3480156104da57600080fd5b506104f560048036036104f091908101906137d3565b610f63565b6040516105029190614427565b60405180910390f35b34801561051757600080fd5b50610520610fcb565b60405161052d9190614427565b60405180910390f35b34801561054257600080fd5b5061055d6004803603610558919081019061388c565b610fe2565b60405161056a919061438a565b60405180910390f35b34801561057f57600080fd5b5061059a6004803603610595919081019061388c565b611094565b005b3480156105a857600080fd5b506105b16110e8565b005b3480156105bf57600080fd5b506105da60048036036105d59190810190613603565b6110f3565b6040516105e791906147df565b60405180910390f35b3480156105fc57600080fd5b506106056111b2565b005b34801561061357600080fd5b5061062e60048036036106299190810190613603565b6112ba565b005b34801561063c57600080fd5b5061064561130e565b005b34801561065357600080fd5b5061065c6113fa565b60405161066991906143c0565b60405180910390f35b34801561067e57600080fd5b50610687611424565b6040516106949190614427565b60405180910390f35b3480156106a957600080fd5b506106b261147c565b6040516106bf9190614442565b60405180910390f35b3480156106d457600080fd5b506106ef60048036036106ea919081019061375b565b61151e565b005b3480156106fd57600080fd5b50610718600480360361071391908101906136e0565b61157c565b005b34801561072657600080fd5b50610741600480360361073c919081019061388c565b6115d8565b60405161074e9190614442565b60405180910390f35b34801561076357600080fd5b5061077e6004803603610779919081019061388c565b6116d5565b005b34801561078c57600080fd5b506107a760048036036107a29190810190613655565b611729565b6040516107b49190614427565b60405180910390f35b3480156107c957600080fd5b506107e460048036036107df919081019061362c565b6117bd565b005b6000806000837bffffffffffffffffffffffffffffffffffffffffffffffffffffffff19167bffffffffffffffffffffffffffffffffffffffffffffffffffffffff1916815260200190815260200160002060009054906101000a900460ff169050919050565b606060098054600181600116156101000203166002900480601f0160208091040260200160405190810160405280929190818152602001828054600181600116156101000203166002900480156108e55780601f106108ba576101008083540402835291602001916108e5565b820191906000526020600020905b8154815290600101906020018083116108c857829003601f168201915b5050505050905090565b60006108fa82611810565b610939576040517f08c379a000000000000000000000000000000000000000000000000000000000815260040161093090614744565b60405180910390fd5b6002600083815260200190815260200160002060009054906101000a900473ffffffffffffffffffffffffffffffffffffffff169050919050565b600e60009054906101000a900460ff16156109c4576040517f08c379a00000000000000000000000000000000000000000000000000000000081526004016109bb90614564565b60405180910390fd5b6109ce8282611882565b5050565b6000600780549050905090565b600e60009054906101000a900460ff1615610a2f576040517f08c379a0000000000000000000000000000000000000000000000000000000008152600401610a2690614564565b60405180910390fd5b610a3a838383611a2f565b505050565b60003073ffffffffffffffffffffffffffffffffffffffff1631905081811015610a6857600080fd5b610a706113fa565b73ffffffffffffffffffffffffffffffffffffffff163373ffffffffffffffffffffffffffffffffffffffff1614610aa757600080fd5b3373ffffffffffffffffffffffffffffffffffffffff166108fc839081150290604051600060405180830381858888f19350505050158015610aed573d6000803e3d6000fd5b505050565b6000610afd836110f3565b8210610b3e576040517f08c379a0000000000000000000000000000000000000000000000000000000008152600401610b3590614584565b60405180910390fd5b600560008473ffffffffffffffffffffffffffffffffffffffff1673ffffffffffffffffffffffffffffffffffffffff1681526020019081526020016000208281548110610b8857fe5b9060005260206000200154905092915050565b610ba36133b0565b600f60405180604001604052908160008201548152602001600182015481525050905090565b610bd233610edc565b610c11576040517f08c379a0000000000000000000000000000000000000000000000000000000008152600401610c08906144c4565b60405180910390fd5b600e60009054906101000a900460ff16610c60576040517f08c379a0000000000000000000000000000000000000000000000000000000008152600401610c5790614464565b60405180910390fd5b6000600e60006101000a81548160ff0219169083151502179055507f5db9ee0a495bf2e6ff9c91a7834c1ba4fdd244a5e8aa4e537bd38aeae4b073aa33604051610caa91906143a5565b60405180910390a1565b34600f6000015414610cc557600080fd5b60006001610cd16109d2565b01905080600f600101541015610ce657600080fd5b6060610cf182611a88565b90506060610def60118054600181600116156101000203166002900480601f016020809104026020016040519081016040528092919081815260200182805460018160011615610100020316600290048015610d8e5780601f10610d6357610100808354040283529160200191610d8e565b820191906000526020600020905b815481529060010190602001808311610d7157829003601f168201915b5050505050836040518060400160405280600581526020017f2e6a736f6e0000000000000000000000000000000000000000000000000000008152506040518060200160405280600081525060405180602001604052806000815250611bbb565b9050610dfb3384611e7a565b610e058382611e9b565b505050565b6000610e14611424565b610e53576040517f08c379a0000000000000000000000000000000000000000000000000000000008152600401610e4a90614644565b60405180910390fd5b610e5d8383611e7a565b6001905092915050565b610e828383836040518060200160405280600081525061157c565b505050565b610e913382611f0f565b610ed0576040517f08c379a0000000000000000000000000000000000000000000000000000000008152600401610ec7906146a4565b60405180910390fd5b610ed981611fed565b50565b6000610ef282600d61200290919063ffffffff16565b9050919050565b6000610f036109d2565b8210610f44576040517f08c379a0000000000000000000000000000000000000000000000000000000008152600401610f3b90614704565b60405180910390fd5b60078281548110610f5157fe5b90600052602060002001549050919050565b6000610f6d611424565b610fac576040517f08c379a0000000000000000000000000000000000000000000000000000000008152600401610fa390614644565b60405180910390fd5b610fb68484611e7a565b610fc08383611e9b565b600190509392505050565b6000600e60009054906101000a900460ff16905090565b6000806001600084815260200190815260200160002060009054906101000a900473ffffffffffffffffffffffffffffffffffffffff169050600073ffffffffffffffffffffffffffffffffffffffff168173ffffffffffffffffffffffffffffffffffffffff16141561108b576040517f08c379a0000000000000000000000000000000000000000000000000000000008152600401611082906145c4565b60405180910390fd5b80915050919050565b61109c611424565b6110db576040517f08c379a00000000000000000000000000000000000000000000000000000000081526004016110d290614644565b60405180910390fd5b80600f6000018190555050565b6110f1336120ca565b565b60008073ffffffffffffffffffffffffffffffffffffffff168273ffffffffffffffffffffffffffffffffffffffff161415611164576040517f08c379a000000000000000000000000000000000000000000000000000000000815260040161115b906146c4565b60405180910390fd5b6111ab600360008473ffffffffffffffffffffffffffffffffffffffff1673ffffffffffffffffffffffffffffffffffffffff168152602001908152602001600020612124565b9050919050565b6111ba611424565b6111f9576040517f08c379a00000000000000000000000000000000000000000000000000000000081526004016111f090614644565b60405180910390fd5b600073ffffffffffffffffffffffffffffffffffffffff16600c60009054906101000a900473ffffffffffffffffffffffffffffffffffffffff1673ffffffffffffffffffffffffffffffffffffffff167f8be0079c531659141344cd1fd0a4f28419497f9722a3daafe3b4186f6b6457e060405160405180910390a36000600c60006101000a81548173ffffffffffffffffffffffffffffffffffffffff021916908373ffffffffffffffffffffffffffffffffffffffff160217905550565b6112c333610edc565b611302576040517f08c379a00000000000000000000000000000000000000000000000000000000081526004016112f9906144c4565b60405180910390fd5b61130b81612132565b50565b61131733610edc565b611356576040517f08c379a000000000000000000000000000000000000000000000000000000000815260040161134d906144c4565b60405180910390fd5b600e60009054906101000a900460ff16156113a6576040517f08c379a000000000000000000000000000000000000000000000000000000000815260040161139d90614564565b60405180910390fd5b6001600e60006101000a81548160ff0219169083151502179055507f62e78cea01bee320cd4e420270b5ea74000d11b0c9f74754ebdbfc544b05a258336040516113f091906143a5565b60405180910390a1565b6000600c60009054906101000a900473ffffffffffffffffffffffffffffffffffffffff16905090565b6000600c60009054906101000a900473ffffffffffffffffffffffffffffffffffffffff1673ffffffffffffffffffffffffffffffffffffffff163373ffffffffffffffffffffffffffffffffffffffff1614905090565b6060600a8054600181600116156101000203166002900480601f0160208091040260200160405190810160405280929190818152602001828054600181600116156101000203166002900480156115145780601f106114e957610100808354040283529160200191611514565b820191906000526020600020905b8154815290600101906020018083116114f757829003601f168201915b5050505050905090565b600e60009054906101000a900460ff161561156e576040517f08c379a000000000000000000000000000000000000000000000000000000000815260040161156590614564565b60405180910390fd5b611578828261218c565b5050565b6115878484846109df565b611593848484846122f8565b6115d2576040517f08c379a00000000000000000000000000000000000000000000000000000000081526004016115c990614684565b60405180910390fd5b50505050565b60606115e382611810565b611622576040517f08c379a0000000000000000000000000000000000000000000000000000000008152600401611619906144a4565b60405180910390fd5b600b60008381526020019081526020016000208054600181600116156101000203166002900480601f0160208091040260200160405190810160405280929190818152602001828054600181600116156101000203166002900480156116c95780601f1061169e576101008083540402835291602001916116c9565b820191906000526020600020905b8154815290600101906020018083116116ac57829003601f168201915b50505050509050919050565b6116dd611424565b61171c576040517f08c379a000000000000000000000000000000000000000000000000000000000815260040161171390614644565b60405180910390fd5b80600f6001018190555050565b6000600460008473ffffffffffffffffffffffffffffffffffffffff1673ffffffffffffffffffffffffffffffffffffffff16815260200190815260200160002060008373ffffffffffffffffffffffffffffffffffffffff1673ffffffffffffffffffffffffffffffffffffffff16815260200190815260200160002060009054906101000a900460ff16905092915050565b6117c5611424565b611804576040517f08c379a00000000000000000000000000000000000000000000000000000000081526004016117fb90614644565b60405180910390fd5b61180d81612602565b50565b6000806001600084815260200190815260200160002060009054906101000a900473ffffffffffffffffffffffffffffffffffffffff169050600073ffffffffffffffffffffffffffffffffffffffff168173ffffffffffffffffffffffffffffffffffffffff161415915050919050565b600061188d82610fe2565b90508073ffffffffffffffffffffffffffffffffffffffff168373ffffffffffffffffffffffffffffffffffffffff1614156118fe576040517f08c379a00000000000000000000000000000000000000000000000000000000081526004016118f590614524565b60405180910390fd5b8073ffffffffffffffffffffffffffffffffffffffff163373ffffffffffffffffffffffffffffffffffffffff16148061193e575061193d8133611729565b5b61197d576040517f08c379a000000000000000000000000000000000000000000000000000000000815260040161197490614764565b60405180910390fd5b826002600084815260200190815260200160002060006101000a81548173ffffffffffffffffffffffffffffffffffffffff021916908373ffffffffffffffffffffffffffffffffffffffff160217905550818373ffffffffffffffffffffffffffffffffffffffff168273ffffffffffffffffffffffffffffffffffffffff167f8c5be1e5ebec7d5bd14f71427d1e84f3dd0314c0f7b2291e5b200ac8c7c3b92560405160405180910390a4505050565b611a393382611f0f565b611a78576040517f08c379a0000000000000000000000000000000000000000000000000000000008152600401611a6f90614624565b60405180910390fd5b611a83838383612732565b505050565b60606000821415611ad0576040518060400160405280600181526020017f30000000000000000000000000000000000000000000000000000000000000008152509050611bb6565b600082905060005b60008214611afa578080600101915050600a8281611af257fe5b049150611ad8565b6060816040519080825280601f01601f191660200182016040528015611b2f5781602001600182028038833980820191505090505b509050600085905060006001840390505b60008214611bad57600a8281611b5257fe5b0660300160f81b83828060019003935081518110611b6c57fe5b60200101907effffffffffffffffffffffffffffffffffffffffffffffffffffffffffffff1916908160001a905350600a8281611ba557fe5b049150611b40565b82955050505050505b919050565b6060808690506060869050606086905060608690506060869050606081518351855187518951010101016040519080825280601f01601f191660200182016040528015611c175781602001600182028038833980820191505090505b509050606081905060008060009050600091505b8851821015611c9957888281518110611c4057fe5b602001015160f81c60f81b838280600101935081518110611c5d57fe5b60200101907effffffffffffffffffffffffffffffffffffffffffffffffffffffffffffff1916908160001a9053508180600101925050611c2b565b600091505b8751821015611d0c57878281518110611cb357fe5b602001015160f81c60f81b838280600101935081518110611cd057fe5b60200101907effffffffffffffffffffffffffffffffffffffffffffffffffffffffffffff1916908160001a9053508180600101925050611c9e565b600091505b8651821015611d7f57868281518110611d2657fe5b602001015160f81c60f81b838280600101935081518110611d4357fe5b60200101907effffffffffffffffffffffffffffffffffffffffffffffffffffffffffffff1916908160001a9053508180600101925050611d11565b600091505b8551821015611df257858281518110611d9957fe5b602001015160f81c60f81b838280600101935081518110611db657fe5b60200101907effffffffffffffffffffffffffffffffffffffffffffffffffffffffffffff1916908160001a9053508180600101925050611d84565b600091505b8451821015611e6557848281518110611e0c57fe5b602001015160f81c60f81b838280600101935081518110611e2957fe5b60200101907effffffffffffffffffffffffffffffffffffffffffffffffffffffffffffff1916908160001a9053508180600101925050611df7565b82995050505050505050505095945050505050565b611e848282612756565b611e8e8282612908565b611e97816129cf565b5050565b611ea482611810565b611ee3576040517f08c379a0000000000000000000000000000000000000000000000000000000008152600401611eda906145e4565b60405180910390fd5b80600b60008481526020019081526020016000209080519060200190611f0a9291906133ca565b505050565b6000611f1a82611810565b611f59576040517f08c379a0000000000000000000000000000000000000000000000000000000008152600401611f50906147a4565b60405180910390fd5b6000611f6483610fe2565b90508073ffffffffffffffffffffffffffffffffffffffff168473ffffffffffffffffffffffffffffffffffffffff161480611fd357508373ffffffffffffffffffffffffffffffffffffffff16611fbb846108ef565b73ffffffffffffffffffffffffffffffffffffffff16145b80611fe45750611fe38185611729565b5b91505092915050565b611fff611ff982610fe2565b82612a1b565b50565b60008073ffffffffffffffffffffffffffffffffffffffff168273ffffffffffffffffffffffffffffffffffffffff161415612073576040517f08c379a000000000000000000000000000000000000000000000000000000000815260040161206a90614664565b60405180910390fd5b8260000160008373ffffffffffffffffffffffffffffffffffffffff1673ffffffffffffffffffffffffffffffffffffffff16815260200190815260200160002060009054906101000a900460ff16905092915050565b6120de81600d612a7890919063ffffffff16565b8073ffffffffffffffffffffffffffffffffffffffff167fcd265ebaf09df2871cc7bd4133404a235ba12eff2041bb89d9c714a2621c7c7e60405160405180910390a250565b600081600001549050919050565b61214681600d612b1f90919063ffffffff16565b8073ffffffffffffffffffffffffffffffffffffffff167f6719d08c1888103bea251a4ed56406bd0c3e69723c8a1686e017e7bbe159b6f860405160405180910390a250565b3373ffffffffffffffffffffffffffffffffffffffff168273ffffffffffffffffffffffffffffffffffffffff1614156121fb576040517f08c379a00000000000000000000000000000000000000000000000000000000081526004016121f290614604565b60405180910390fd5b80600460003373ffffffffffffffffffffffffffffffffffffffff1673ffffffffffffffffffffffffffffffffffffffff16815260200190815260200160002060008473ffffffffffffffffffffffffffffffffffffffff1673ffffffffffffffffffffffffffffffffffffffff16815260200190815260200160002060006101000a81548160ff0219169083151502179055508173ffffffffffffffffffffffffffffffffffffffff163373ffffffffffffffffffffffffffffffffffffffff167f17307eab39ab6107e8899845ad3d59bd9653f200f220920489ca2b5937696c31836040516122ec9190614427565b60405180910390a35050565b600080606061231c8673ffffffffffffffffffffffffffffffffffffffff16612bc7565b61232b576001925050506125fa565b8573ffffffffffffffffffffffffffffffffffffffff1663150b7a0260e01b3389888860405160240161236194939291906143db565b604051602081830303815290604052907bffffffffffffffffffffffffffffffffffffffffffffffffffffffff19166020820180517bffffffffffffffffffffffffffffffffffffffffffffffffffffffff83818316178352505050506040516123cb9190614373565b6000604051808303816000865af19150503d8060008114612408576040519150601f19603f3d011682016040523d82523d6000602084013e61240d565b606091505b508092508193505050600081511415801561247f575063150b7a0260e01b7bffffffffffffffffffffffffffffffffffffffffffffffffffffffff19168180602001905161245e9190810190613863565b7bffffffffffffffffffffffffffffffffffffffffffffffffffffffff1916145b1561248f576001925050506125fa565b8573ffffffffffffffffffffffffffffffffffffffff16636745782b60e01b338988886040516024016124c594939291906143db565b604051602081830303815290604052907bffffffffffffffffffffffffffffffffffffffffffffffffffffffff19166020820180517bffffffffffffffffffffffffffffffffffffffffffffffffffffffff838183161783525050505060405161252f9190614373565b6000604051808303816000865af19150503d806000811461256c576040519150601f19603f3d011682016040523d82523d6000602084013e612571565b606091505b50809250819350505060008151141580156125e35750636745782b60e01b7bffffffffffffffffffffffffffffffffffffffffffffffffffffffff1916818060200190516125c29190810190613863565b7bffffffffffffffffffffffffffffffffffffffffffffffffffffffff1916145b156125f3576001925050506125fa565b6000925050505b949350505050565b600073ffffffffffffffffffffffffffffffffffffffff168173ffffffffffffffffffffffffffffffffffffffff161415612672576040517f08c379a0000000000000000000000000000000000000000000000000000000008152600401612669906144e4565b60405180910390fd5b8073ffffffffffffffffffffffffffffffffffffffff16600c60009054906101000a900473ffffffffffffffffffffffffffffffffffffffff1673ffffffffffffffffffffffffffffffffffffffff167f8be0079c531659141344cd1fd0a4f28419497f9722a3daafe3b4186f6b6457e060405160405180910390a380600c60006101000a81548173ffffffffffffffffffffffffffffffffffffffff021916908373ffffffffffffffffffffffffffffffffffffffff16021790555050565b61273d838383612bda565b6127478382612e09565b6127518282612908565b505050565b600073ffffffffffffffffffffffffffffffffffffffff168273ffffffffffffffffffffffffffffffffffffffff1614156127c6576040517f08c379a00000000000000000000000000000000000000000000000000000000081526004016127bd90614544565b60405180910390fd5b6127cf81611810565b1561280f576040517f08c379a000000000000000000000000000000000000000000000000000000000815260040161280690614784565b60405180910390fd5b816001600083815260200190815260200160002060006101000a81548173ffffffffffffffffffffffffffffffffffffffff021916908373ffffffffffffffffffffffffffffffffffffffff1602179055506128a8600360008473ffffffffffffffffffffffffffffffffffffffff1673ffffffffffffffffffffffffffffffffffffffff168152602001908152602001600020612fa7565b808273ffffffffffffffffffffffffffffffffffffffff16600073ffffffffffffffffffffffffffffffffffffffff167fddf252ad1be2c89b69c2b068fc378daa952ba7f163c4a11628f55a4df523b3ef60405160405180910390a45050565b600560008373ffffffffffffffffffffffffffffffffffffffff1673ffffffffffffffffffffffffffffffffffffffff168152602001908152602001600020805490506006600083815260200190815260200160002081905550600560008373ffffffffffffffffffffffffffffffffffffffff1673ffffffffffffffffffffffffffffffffffffffff1681526020019081526020016000208190806001815401808255809150509060018203906000526020600020016000909192909190915055505050565b6007805490506008600083815260200190815260200160002081905550600781908060018154018082558091505090600182039060005260206000200160009091929091909150555050565b612a258282612fbd565b6000600b600083815260200190815260200160002080546001816001161561010002031660029004905014612a7457600b60008281526020019081526020016000206000612a73919061344a565b5b5050565b612a828282612002565b612ac1576040517f08c379a0000000000000000000000000000000000000000000000000000000008152600401612ab8906145a4565b60405180910390fd5b60008260000160008373ffffffffffffffffffffffffffffffffffffffff1673ffffffffffffffffffffffffffffffffffffffff16815260200190815260200160002060006101000a81548160ff0219169083151502179055505050565b612b298282612002565b15612b69576040517f08c379a0000000000000000000000000000000000000000000000000000000008152600401612b6090614484565b60405180910390fd5b60018260000160008373ffffffffffffffffffffffffffffffffffffffff1673ffffffffffffffffffffffffffffffffffffffff16815260200190815260200160002060006101000a81548160ff0219169083151502179055505050565b600080823b905060008111915050919050565b8273ffffffffffffffffffffffffffffffffffffffff16612bfa82610fe2565b73ffffffffffffffffffffffffffffffffffffffff1614612c50576040517f08c379a0000000000000000000000000000000000000000000000000000000008152600401612c47906146e4565b60405180910390fd5b600073ffffffffffffffffffffffffffffffffffffffff168273ffffffffffffffffffffffffffffffffffffffff161415612cc0576040517f08c379a0000000000000000000000000000000000000000000000000000000008152600401612cb790614504565b60405180910390fd5b612cc981612ff7565b612d10600360008573ffffffffffffffffffffffffffffffffffffffff1673ffffffffffffffffffffffffffffffffffffffff1681526020019081526020016000206130b5565b612d57600360008473ffffffffffffffffffffffffffffffffffffffff1673ffffffffffffffffffffffffffffffffffffffff168152602001908152602001600020612fa7565b816001600083815260200190815260200160002060006101000a81548173ffffffffffffffffffffffffffffffffffffffff021916908373ffffffffffffffffffffffffffffffffffffffff160217905550808273ffffffffffffffffffffffffffffffffffffffff168473ffffffffffffffffffffffffffffffffffffffff167fddf252ad1be2c89b69c2b068fc378daa952ba7f163c4a11628f55a4df523b3ef60405160405180910390a4505050565b6000612e616001600560008673ffffffffffffffffffffffffffffffffffffffff1673ffffffffffffffffffffffffffffffffffffffff168152602001908152602001600020805490506130d890919063ffffffff16565b9050600060066000848152602001908152602001600020549050818114612f4e576000600560008673ffffffffffffffffffffffffffffffffffffffff1673ffffffffffffffffffffffffffffffffffffffff1681526020019081526020016000208381548110612ece57fe5b9060005260206000200154905080600560008773ffffffffffffffffffffffffffffffffffffffff1673ffffffffffffffffffffffffffffffffffffffff1681526020019081526020016000208381548110612f2657fe5b9060005260206000200181905550816006600083815260200190815260200160002081905550505b600560008573ffffffffffffffffffffffffffffffffffffffff1673ffffffffffffffffffffffffffffffffffffffff168152602001908152602001600020805480919060019003612fa09190613492565b5050505050565b6001816000016000828254019250508190555050565b612fc78282613122565b612fd18282612e09565b60006006600083815260200190815260200160002081905550612ff38161329b565b5050565b600073ffffffffffffffffffffffffffffffffffffffff166002600083815260200190815260200160002060009054906101000a900473ffffffffffffffffffffffffffffffffffffffff1673ffffffffffffffffffffffffffffffffffffffff16146130b25760006002600083815260200190815260200160002060006101000a81548173ffffffffffffffffffffffffffffffffffffffff021916908373ffffffffffffffffffffffffffffffffffffffff1602179055505b50565b6130cd600182600001546130d890919063ffffffff16565b816000018190555050565b600061311a83836040518060400160405280601e81526020017f536166654d6174683a207375627472616374696f6e206f766572666c6f770000815250613355565b905092915050565b8173ffffffffffffffffffffffffffffffffffffffff1661314282610fe2565b73ffffffffffffffffffffffffffffffffffffffff1614613198576040517f08c379a000000000000000000000000000000000000000000000000000000000815260040161318f90614724565b60405180910390fd5b6131a181612ff7565b6131e8600360008473ffffffffffffffffffffffffffffffffffffffff1673ffffffffffffffffffffffffffffffffffffffff1681526020019081526020016000206130b5565b60006001600083815260200190815260200160002060006101000a81548173ffffffffffffffffffffffffffffffffffffffff021916908373ffffffffffffffffffffffffffffffffffffffff16021790555080600073ffffffffffffffffffffffffffffffffffffffff168373ffffffffffffffffffffffffffffffffffffffff167fddf252ad1be2c89b69c2b068fc378daa952ba7f163c4a11628f55a4df523b3ef60405160405180910390a45050565b60006132b660016007805490506130d890919063ffffffff16565b90506000600860008481526020019081526020016000205490506000600783815481106132df57fe5b9060005260206000200154905080600783815481106132fa57fe5b906000526020600020018190555081600860008381526020019081526020016000208190555060078054809190600190036133359190613492565b506000600860008681526020019081526020016000208190555050505050565b600083831115829061339d576040517f08c379a00000000000000000000000000000000000000000000000000000000081526004016133949190614442565b60405180910390fd5b5060008385039050809150509392505050565b604051806040016040528060008152602001600081525090565b828054600181600116156101000203166002900490600052602060002090601f016020900481019282601f1061340b57805160ff1916838001178555613439565b82800160010185558215613439579182015b8281111561343857825182559160200191906001019061341d565b5b50905061344691906134be565b5090565b50805460018160011615610100020316600290046000825580601f10613470575061348f565b601f01602090049060005260206000209081019061348e91906134be565b5b50565b8154818355818111156134b9578183600052602060002091820191016134b891906134be565b5b505050565b6134e091905b808211156134dc5760008160009055506001016134c4565b5090565b90565b60006134ef823561491c565b905092915050565b6000613503823561492e565b905092915050565b60006135178235614940565b905092915050565b600061352b823561494c565b905092915050565b600061353f825161494c565b905092915050565b600082601f83011261355857600080fd5b813561356b61356682614827565b6147fa565b9150808252602083016020830185838301111561358757600080fd5b6135928382846149d8565b50505092915050565b600082601f8301126135ac57600080fd5b81356135bf6135ba82614853565b6147fa565b915080825260208301602083018583830111156135db57600080fd5b6135e68382846149d8565b50505092915050565b60006135fb8235614998565b905092915050565b60006020828403121561361557600080fd5b6000613623848285016134e3565b91505092915050565b60006020828403121561363e57600080fd5b600061364c848285016134f7565b91505092915050565b6000806040838503121561366857600080fd5b6000613676858286016134e3565b9250506020613687858286016134e3565b9150509250929050565b6000806000606084860312156136a657600080fd5b60006136b4868287016134e3565b93505060206136c5868287016134e3565b92505060406136d6868287016135ef565b9150509250925092565b600080600080608085870312156136f657600080fd5b6000613704878288016134e3565b9450506020613715878288016134e3565b9350506040613726878288016135ef565b925050606085013567ffffffffffffffff81111561374357600080fd5b61374f87828801613547565b91505092959194509250565b6000806040838503121561376e57600080fd5b600061377c858286016134e3565b925050602061378d8582860161350b565b9150509250929050565b600080604083850312156137aa57600080fd5b60006137b8858286016134e3565b92505060206137c9858286016135ef565b9150509250929050565b6000806000606084860312156137e857600080fd5b60006137f6868287016134e3565b9350506020613807868287016135ef565b925050604084013567ffffffffffffffff81111561382457600080fd5b6138308682870161359b565b9150509250925092565b60006020828403121561384c57600080fd5b600061385a8482850161351f565b91505092915050565b60006020828403121561387557600080fd5b600061388384828501613533565b91505092915050565b60006020828403121561389e57600080fd5b60006138ac848285016135ef565b91505092915050565b6138be816149a2565b82525050565b6138cd816148d4565b82525050565b6138dc816148c2565b82525050565b6138eb816148e6565b82525050565b60006138fc8261487f565b6139068185614895565b93506139168185602086016149e7565b61391f81614a1a565b840191505092915050565b60006139358261487f565b61393f81856148a6565b935061394f8185602086016149e7565b80840191505092915050565b60006139668261488a565b61397081856148b1565b93506139808185602086016149e7565b61398981614a1a565b840191505092915050565b60006139a16014836148b1565b91507f5061757361626c653a206e6f74207061757365640000000000000000000000006000830152602082019050919050565b60006139e1601f836148b1565b91507f526f6c65733a206163636f756e7420616c72656164792068617320726f6c65006000830152602082019050919050565b6000613a21602e836148b1565b91507f4b495031374d657461646174613a2055524920717565727920666f72206e6f6e60008301527f6578697374656e7420746f6b656e0000000000000000000000000000000000006020830152604082019050919050565b6000613a876030836148b1565b91507f506175736572526f6c653a2063616c6c657220646f6573206e6f74206861766560008301527f207468652050617573657220726f6c65000000000000000000000000000000006020830152604082019050919050565b6000613aed6026836148b1565b91507f4f776e61626c653a206e6577206f776e657220697320746865207a65726f206160008301527f64647265737300000000000000000000000000000000000000000000000000006020830152604082019050919050565b6000613b536023836148b1565b91507f4b495031373a207472616e7366657220746f20746865207a65726f206164647260008301527f65737300000000000000000000000000000000000000000000000000000000006020830152604082019050919050565b6000613bb96020836148b1565b91507f4b495031373a20617070726f76616c20746f2063757272656e74206f776e65726000830152602082019050919050565b6000613bf9601f836148b1565b91507f4b495031373a206d696e7420746f20746865207a65726f2061646472657373006000830152602082019050919050565b6000613c396010836148b1565b91507f5061757361626c653a20706175736564000000000000000000000000000000006000830152602082019050919050565b6000613c79602a836148b1565b91507f4b49503137456e756d657261626c653a206f776e657220696e646578206f757460008301527f206f6620626f756e6473000000000000000000000000000000000000000000006020830152604082019050919050565b6000613cdf6021836148b1565b91507f526f6c65733a206163636f756e7420646f6573206e6f74206861766520726f6c60008301527f65000000000000000000000000000000000000000000000000000000000000006020830152604082019050919050565b6000613d456028836148b1565b91507f4b495031373a206f776e657220717565727920666f72206e6f6e65786973746560008301527f6e7420746f6b656e0000000000000000000000000000000000000000000000006020830152604082019050919050565b6000613dab602b836148b1565b91507f4b495031374d657461646174613a2055524920736574206f66206e6f6e65786960008301527f7374656e7420746f6b656e0000000000000000000000000000000000000000006020830152604082019050919050565b6000613e116018836148b1565b91507f4b495031373a20617070726f766520746f2063616c6c657200000000000000006000830152602082019050919050565b6000613e516030836148b1565b91507f4b495031373a207472616e736665722063616c6c6572206973206e6f74206f7760008301527f6e6572206e6f7220617070726f766564000000000000000000000000000000006020830152604082019050919050565b6000613eb76020836148b1565b91507f4f776e61626c653a2063616c6c6572206973206e6f7420746865206f776e65726000830152602082019050919050565b6000613ef76022836148b1565b91507f526f6c65733a206163636f756e7420697320746865207a65726f20616464726560008301527f73730000000000000000000000000000000000000000000000000000000000006020830152604082019050919050565b6000613f5d6030836148b1565b91507f4b495031373a207472616e7366657220746f206e6f6e204b495031375265636560008301527f6976657220696d706c656d656e746572000000000000000000000000000000006020830152604082019050919050565b6000613fc3602f836148b1565b91507f4b495031374275726e61626c653a2063616c6c6572206973206e6f74206f776e60008301527f6572206e6f7220617070726f76656400000000000000000000000000000000006020830152604082019050919050565b60006140296029836148b1565b91507f4b495031373a2062616c616e636520717565727920666f7220746865207a657260008301527f6f206164647265737300000000000000000000000000000000000000000000006020830152604082019050919050565b600061408f6028836148b1565b91507f4b495031373a207472616e73666572206f6620746f6b656e207468617420697360008301527f206e6f74206f776e0000000000000000000000000000000000000000000000006020830152604082019050919050565b60006140f5602b836148b1565b91507f4b49503137456e756d657261626c653a20676c6f62616c20696e646578206f7560008301527f74206f6620626f756e64730000000000000000000000000000000000000000006020830152604082019050919050565b600061415b6024836148b1565b91507f4b495031373a206275726e206f6620746f6b656e2074686174206973206e6f7460008301527f206f776e000000000000000000000000000000000000000000000000000000006020830152604082019050919050565b60006141c1602b836148b1565b91507f4b495031373a20617070726f76656420717565727920666f72206e6f6e65786960008301527f7374656e7420746f6b656e0000000000000000000000000000000000000000006020830152604082019050919050565b60006142276037836148b1565b91507f4b495031373a20617070726f76652063616c6c6572206973206e6f74206f776e60008301527f6572206e6f7220617070726f76656420666f7220616c6c0000000000000000006020830152604082019050919050565b600061428d601b836148b1565b91507f4b495031373a20746f6b656e20616c7265616479206d696e74656400000000006000830152602082019050919050565b60006142cd602b836148b1565b91507f4b495031373a206f70657261746f7220717565727920666f72206e6f6e65786960008301527f7374656e7420746f6b656e0000000000000000000000000000000000000000006020830152604082019050919050565b60408201600082015161433c6000850182614355565b50602082015161434f6020850182614355565b50505050565b61435e81614912565b82525050565b61436d81614912565b82525050565b600061437f828461392a565b915081905092915050565b600060208201905061439f60008301846138d3565b92915050565b60006020820190506143ba60008301846138b5565b92915050565b60006020820190506143d560008301846138c4565b92915050565b60006080820190506143f060008301876138c4565b6143fd60208301866138d3565b61440a6040830185614364565b818103606083015261441c81846138f1565b905095945050505050565b600060208201905061443c60008301846138e2565b92915050565b6000602082019050818103600083015261445c818461395b565b905092915050565b6000602082019050818103600083015261447d81613994565b9050919050565b6000602082019050818103600083015261449d816139d4565b9050919050565b600060208201905081810360008301526144bd81613a14565b9050919050565b600060208201905081810360008301526144dd81613a7a565b9050919050565b600060208201905081810360008301526144fd81613ae0565b9050919050565b6000602082019050818103600083015261451d81613b46565b9050919050565b6000602082019050818103600083015261453d81613bac565b9050919050565b6000602082019050818103600083015261455d81613bec565b9050919050565b6000602082019050818103600083015261457d81613c2c565b9050919050565b6000602082019050818103600083015261459d81613c6c565b9050919050565b600060208201905081810360008301526145bd81613cd2565b9050919050565b600060208201905081810360008301526145dd81613d38565b9050919050565b600060208201905081810360008301526145fd81613d9e565b9050919050565b6000602082019050818103600083015261461d81613e04565b9050919050565b6000602082019050818103600083015261463d81613e44565b9050919050565b6000602082019050818103600083015261465d81613eaa565b9050919050565b6000602082019050818103600083015261467d81613eea565b9050919050565b6000602082019050818103600083015261469d81613f50565b9050919050565b600060208201905081810360008301526146bd81613fb6565b9050919050565b600060208201905081810360008301526146dd8161401c565b9050919050565b600060208201905081810360008301526146fd81614082565b9050919050565b6000602082019050818103600083015261471d816140e8565b9050919050565b6000602082019050818103600083015261473d8161414e565b9050919050565b6000602082019050818103600083015261475d816141b4565b9050919050565b6000602082019050818103600083015261477d8161421a565b9050919050565b6000602082019050818103600083015261479d81614280565b9050919050565b600060208201905081810360008301526147bd816142c0565b9050919050565b60006040820190506147d96000830184614326565b92915050565b60006020820190506147f46000830184614364565b92915050565b6000604051905081810181811067ffffffffffffffff8211171561481d57600080fd5b8060405250919050565b600067ffffffffffffffff82111561483e57600080fd5b601f19601f8301169050602081019050919050565b600067ffffffffffffffff82111561486a57600080fd5b601f19601f8301169050602081019050919050565b600081519050919050565b600081519050919050565b600082825260208201905092915050565b600081905092915050565b600082825260208201905092915050565b60006148cd826148f2565b9050919050565b60006148df826148f2565b9050919050565b60008115159050919050565b600073ffffffffffffffffffffffffffffffffffffffff82169050919050565b6000819050919050565b600061492782614978565b9050919050565b600061493982614978565b9050919050565b60008115159050919050565b60007fffffffff0000000000000000000000000000000000000000000000000000000082169050919050565b600073ffffffffffffffffffffffffffffffffffffffff82169050919050565b6000819050919050565b60006149ad826149b4565b9050919050565b60006149bf826149c6565b9050919050565b60006149d1826148f2565b9050919050565b82818337600083830152505050565b60005b83811015614a055780820151818401526020810190506149ea565b83811115614a14576000848401525b50505050565b6000601f19601f830116905091905056fea265627a7a723058208523ba047edd2384cc88680f516776e71547cde989d97d02610b5ddc8c99d9b16c6578706572696d656e74616cf5003768747470733a2f2f6d796e66742e67756e696c6c65652e7265706c2e636f2f6b6c6179746e2d30362f",
  "source": "pragma experimental ABIEncoderV2;\r\npragma solidity ^0.5.6;\r\n\r\nimport \"./KIP17OwnableFlattened.sol\";\r\n\r\ncontract MyNFT is KIP17TokenOwnable {\r\n  struct Data {\r\n    uint256 fee;\r\n    uint256 count;\r\n  }\r\n\r\n  Data data;\r\n  string URL = \"https://mynft.gunillee.repl.co/klaytn-06/\";\r\n\r\n  constructor() public KIP17TokenOwnable(\"MyNFT\", \"MYNFT\") {\r\n    data = Data(1 ether, 0);\r\n    // data.fee = 1 ether;\r\n    // data.count = 0;\r\n  }\r\n\r\n  function getData() public view returns (Data memory) {\r\n    return data;\r\n  }\r\n\r\n  function setFee(uint256 _fee) public onlyOwner {\r\n    data.fee = _fee;\r\n  }\r\n\r\n  function setCount(uint256 _count) public onlyOwner {\r\n    data.count = _count;\r\n  }\r\n\r\n  // function deposit() external payable {}\r\n\r\n  function withdraw(uint256 peb) external payable {\r\n    uint256 balance = address(this).balance;\r\n    require(balance >= peb);\r\n    require(msg.sender == owner());\r\n    msg.sender.transfer(peb);\r\n  }\r\n\r\n  //      \r\n  function mintGeust() public payable {\r\n    require(data.fee == msg.value);\r\n\r\n    uint256 id = totalSupply() + 1;\r\n    require(data.count >= id);\r\n\r\n    string memory s_id = uintToString(id);\r\n    string memory link = strConcat(URL, s_id, \".json\", \"\", \"\");\r\n    // https://mynft.gunillee.repl.co/klaytn-06/1.json\r\n    _mint(msg.sender, id);\r\n    _setTokenURI(id, link);\r\n  }\r\n\r\n  //------------------\r\n  // private\r\n  //------------------\r\n  function uintToString(uint256 v) private pure returns (string memory str) {\r\n    if (v == 0) {\r\n      return \"0\";\r\n    }\r\n\r\n    uint256 j = v;\r\n    uint256 len;\r\n    while (j != 0) {\r\n      len++;\r\n      j /= 10;\r\n    }\r\n\r\n    bytes memory bstr = new bytes(len);\r\n    uint256 _i = v;\r\n    uint256 k = len - 1;\r\n    while (_i != 0) {\r\n      bstr[k--] = bytes1(uint8(48 + (_i % 10)));\r\n      _i /= 10;\r\n    }\r\n    return string(bstr);\r\n  }\r\n\r\n  function strConcat(\r\n    string memory _a,\r\n    string memory _b,\r\n    string memory _c,\r\n    string memory _d,\r\n    string memory _e\r\n  ) private pure returns (string memory) {\r\n    bytes memory _ba = bytes(_a);\r\n    bytes memory _bb = bytes(_b);\r\n    bytes memory _bc = bytes(_c);\r\n    bytes memory _bd = bytes(_d);\r\n    bytes memory _be = bytes(_e);\r\n    string memory abcde = new string(\r\n      _ba.length + _bb.length + _bc.length + _bd.length + _be.length\r\n    );\r\n    bytes memory babcde = bytes(abcde);\r\n    uint256 i;\r\n    uint256 k = 0;\r\n    for (i = 0; i < _ba.length; i++) babcde[k++] = _ba[i];\r\n    for (i = 0; i < _bb.length; i++) babcde[k++] = _bb[i];\r\n    for (i = 0; i < _bc.length; i++) babcde[k++] = _bc[i];\r\n    for (i = 0; i < _bd.length; i++) babcde[k++] = _bd[i];\r\n    for (i = 0; i < _be.length; i++) babcde[k++] = _be[i];\r\n    return string(babcde);\r\n  }\r\n}\r\n",
  "sourcePath": "C:\\project\\git\\klay-tutorial-v2\\klaytn-06\\contracts\\MyNFT.sol",
  "compiler": {
    "name": "solc",
    "version": "0.5.6+commit.b259423e.Emscripten.clang"
  },
  "schemaVersion": "3.4.6",
  "updatedAt": "2022-03-29T15:59:53.863Z",
  "networkType": "ethereum",
  "devdoc": {
    "methods": {
      "balanceOf(address)": {
        "details": "Gets the balance of the specified address.",
        "params": {
          "owner": "address to query the balance of"
        },
        "return": "uint256 representing the amount owned by the passed address"
      },
      "burn(uint256)": {
        "details": "Burns a specific KIP17 token.",
        "params": {
          "tokenId": "uint256 id of the KIP17 token to be burned."
        }
      },
      "getApproved(uint256)": {
        "details": "Gets the approved address for a token ID, or zero if no address set Reverts if the token ID does not exist.",
        "params": {
          "tokenId": "uint256 ID of the token to query the approval of"
        },
        "return": "address currently approved for the given token ID"
      },
      "isApprovedForAll(address,address)": {
        "details": "Tells whether an operator is approved by a given owner.",
        "params": {
          "operator": "operator address which you want to query the approval of",
          "owner": "owner address which you want to query the approval of"
        },
        "return": "bool whether the given operator is approved by the given owner"
      },
      "isOwner()": {
        "details": "Returns true if the caller is the current owner."
      },
      "mint(address,uint256)": {
        "details": "Function to mint tokens.",
        "params": {
          "to": "The address that will receive the minted tokens.",
          "tokenId": "The token id to mint."
        },
        "return": "A boolean that indicates if the operation was successful."
      },
      "mintWithTokenURI(address,uint256,string)": {
        "details": "Function to mint tokens.",
        "params": {
          "to": "The address that will receive the minted tokens.",
          "tokenId": "The token id to mint.",
          "tokenURI": "The token URI of the minted token."
        },
        "return": "A boolean that indicates if the operation was successful."
      },
      "name()": {
        "details": "Gets the token name.",
        "return": "string representing the token name"
      },
      "owner()": {
        "details": "Returns the address of the current owner."
      },
      "ownerOf(uint256)": {
        "details": "Gets the owner of the specified token ID.",
        "params": {
          "tokenId": "uint256 ID of the token to query the owner of"
        },
        "return": "address currently marked as the owner of the given token ID"
      },
      "pause()": {
        "details": "Called by a pauser to pause, triggers stopped state."
      },
      "paused()": {
        "details": "Returns true if the contract is paused, and false otherwise."
      },
      "renounceOwnership()": {
        "details": "Leaves the contract without owner. It will not be possible to call `onlyOwner` functions anymore. Can only be called by the current owner.     * > Note: Renouncing ownership will leave the contract without an owner, thereby removing any functionality that is only available to the owner."
      },
      "safeTransferFrom(address,address,uint256)": {
        "details": "Safely transfers the ownership of a given token ID to another address If the target address is a contract, it must implement `onKIP17Received`, which is called upon a safe transfer, and return the magic value `bytes4(keccak256(\"onKIP17Received(address,address,uint256,bytes)\"))`; otherwise, the transfer is reverted. Requires the msg.sender to be the owner, approved, or operator",
        "params": {
          "from": "current owner of the token",
          "to": "address to receive the ownership of the given token ID",
          "tokenId": "uint256 ID of the token to be transferred"
        }
      },
      "safeTransferFrom(address,address,uint256,bytes)": {
        "details": "Safely transfers the ownership of a given token ID to another address If the target address is a contract, it must implement `onKIP17Received`, which is called upon a safe transfer, and return the magic value `bytes4(keccak256(\"onKIP17Received(address,address,uint256,bytes)\"))`; otherwise, the transfer is reverted. Requires the msg.sender to be the owner, approved, or operator",
        "params": {
          "_data": "bytes data to send along with a safe transfer check",
          "from": "current owner of the token",
          "to": "address to receive the ownership of the given token ID",
          "tokenId": "uint256 ID of the token to be transferred"
        }
      },
      "supportsInterface(bytes4)": {
        "details": "See `IKIP13.supportsInterface`.     * Time complexity O(1), guaranteed to always use less than 30 000 gas."
      },
      "symbol()": {
        "details": "Gets the token symbol.",
        "return": "string representing the token symbol"
      },
      "tokenByIndex(uint256)": {
        "details": "Gets the token ID at a given index of all the tokens in this contract Reverts if the index is greater or equal to the total number of tokens.",
        "params": {
          "index": "uint256 representing the index to be accessed of the tokens list"
        },
        "return": "uint256 token ID at the given index of the tokens list"
      },
      "tokenOfOwnerByIndex(address,uint256)": {
        "details": "Gets the token ID at a given index of the tokens list of the requested owner.",
        "params": {
          "index": "uint256 representing the index to be accessed of the requested tokens list",
          "owner": "address owning the tokens list to be accessed"
        },
        "return": "uint256 token ID at the given index of the tokens list owned by the requested address"
      },
      "tokenURI(uint256)": {
        "details": "Returns an URI for a given token ID. Throws if the token ID does not exist. May return an empty string.",
        "params": {
          "tokenId": "uint256 ID of the token to query"
        }
      },
      "totalSupply()": {
        "details": "Gets the total amount of tokens stored by the contract.",
        "return": "uint256 representing the total amount of tokens"
      },
      "transferOwnership(address)": {
        "details": "Transfers ownership of the contract to a new account (`newOwner`). Can only be called by the current owner."
      },
      "unpause()": {
        "details": "Called by a pauser to unpause, returns to normal state."
      }
    }
  },
  "userdoc": {
    "methods": {}
  }
}